:020000040000FA
:10000000000002289430AE000130AF0080300000C4
:1000100000003D210000000083120000C9002F08ED
:10002000C8009630CA000130CB0083120000480897
:10003000CC004908CD00FF30C807031CC9034D0898
:100040004C0403199A2804304A07CC00CD01CD0D89
:100050004B08CD074C08AE004D08AF0080300000C3
:1000600000003D210000000083120000CF002F0897
:10007000CE004A08AE004B08AF0080300000000000
:100080003D210000000083120000D100CD002F08A8
:10009000CC00D00002304A07CC00CD01CD0D4B087A
:1000A000CD074C08AE004D08AF00803000000000C6
:1000B0003D210000000083120000CD00D3002F0876
:1000C000D200CC00831200004E08D2004F08D300AB
:1000D000FF30CE07031CCF035308520403199328A3
:1000E0005008AE005108AF008030000000002A2107
:1000F0000000000083120000D2004C08831203139A
:1001000084008313831200004D1883175208831252
:100110000313800083120000D00A0319D10ACC0A0D
:100120000319CD0A6228063083120000CA0703189B
:10013000CB0A1528000000009E2808008521FA300F
:10014000AF0000305E21B701B8013808803E803E24
:10015000031DAC280A3037020318A3283708543E81
:10016000B9000030BA0038080318380FBA07BB01CD
:10017000BC013C08803E803E031DC0280A303B0283
:100180000318ED288312851AE9283908840083139F
:100190003A1883170008BD00BE00BF013E08AF003B
:1001A0000030F2203B08543EBD000030BE003C0849
:1001B00003183C0FBE073D08840083133E188317C5
:1001C0000008BF00BD00BE013D08AF000030F220B6
:1001D000B921BB0A0319BC0AB928B70A0319B80A1E
:1001E000A5280800B1002F08B000B201B301330800
:1001F000803E803E031DFE28083032020318292964
:100200003108B5003008B4003208B21B1329003C95
:10021000031919290310B51B0314B50CB40C013EC6
:10022000031C0A2919290310B40DB50D013E031C46
:1002300014293408B600360C03182029831205103F
:10024000031C242983120514A221B20A0319B30A3C
:10025000F7280800003A03193129803A0319382990
:1002600000342E08840083132F1883170008080019
:100270002F088A002E0882000800003A0319452939
:10028000803A03194F29AF0100342E0884008313EC
:100290002F1883170008AF00840A00080800000028
:1002A00000003821AD00AE0FAF03AF0A0000000020
:1002B0003821AC002D08AF002C080800C1002F0821
:1002C000C000C201C30141084302031D692940085F
:1002D000420203188429FB30C4000430C500FF30FB
:1002E0004407C600FF30C70045080318450FC7077D
:1002F0004608C4004708C50047084604031D6F2987
:10030000C20A0319C30A6329080083129F018316D6
:100310009F010730831299008316990120308500D0
:10032000203083128500080002340034AF340134D9
:10033000543400340A340034C23401345E3400349E
:1003400001340034831205150A30AF0000305E21FD
:10035000831205110A30AF0000305E2108003034EE
:100360005B344F3466346D347D3447347F344F34DE
:100370003F34831285140A30AF0000305E218312AF
:06038000851008000034A6
:00000001FF
